{
  "address": "0x294376Ea52A577B5EdffC4af46E2575d7786f762",
  "abi": [
    {
      "anonymous": false,
      "inputs": [
        {
          "indexed": false,
          "internalType": "bytes",
          "name": "reason",
          "type": "bytes"
        }
      ],
      "name": "TransferFailure",
      "type": "event"
    },
    {
      "inputs": [
        {
          "internalType": "contract IERC20[]",
          "name": "erc20",
          "type": "address[]"
        },
        {
          "internalType": "uint256[]",
          "name": "amount",
          "type": "uint256[]"
        },
        {
          "internalType": "address[]",
          "name": "to",
          "type": "address[]"
        }
      ],
      "name": "batchSend",
      "outputs": [],
      "stateMutability": "nonpayable",
      "type": "function"
    }
  ],
  "transactionHash": "0x05ff7fda9ea83f5252ae46c18c3e935d23cf58708ad860b3ef2f8d202173f42a",
  "args": [],
  "solcInputHash": "ea5f5c979cc57da7e8f77ca1103dc786",
  "bytecode": "0x608060405234801561001057600080fd5b506106e5806100206000396000f3fe608060405234801561001057600080fd5b506004361061002b5760003560e01c8063d1e596fd14610030575b600080fd5b61004a60048036038101906100459190610392565b61004c565b005b60005b8686905081101561024357868682818110610093577f4e487b7100000000000000000000000000000000000000000000000000000000600052603260045260246000fd5b90506020020160208101906100a8919061045f565b73ffffffffffffffffffffffffffffffffffffffff166323b872dd338585858181106100fd577f4e487b7100000000000000000000000000000000000000000000000000000000600052603260045260246000fd5b90506020020160208101906101129190610369565b88888681811061014b577f4e487b7100000000000000000000000000000000000000000000000000000000600052603260045260246000fd5b905060200201356040518463ffffffff1660e01b8152600401610170939291906104df565b602060405180830381600087803b15801561018a57600080fd5b505af19250505080156101bb57506040513d601f19601f820116820180604052508101906101b89190610436565b60015b61022e573d80600081146101eb576040519150601f19603f3d011682016040523d82523d6000602084013e6101f0565b606091505b507f95d469481af108b9f24a458e66605f0c389fc8f00a5036113f7b447988d55366816040516102209190610516565b60405180910390a150610230565b505b808061023b906105e1565b91505061004f565b50505050505050565b60008135905061025b8161066a565b92915050565b60008083601f84011261027357600080fd5b8235905067ffffffffffffffff81111561028c57600080fd5b6020830191508360208202830111156102a457600080fd5b9250929050565b60008083601f8401126102bd57600080fd5b8235905067ffffffffffffffff8111156102d657600080fd5b6020830191508360208202830111156102ee57600080fd5b9250929050565b60008083601f84011261030757600080fd5b8235905067ffffffffffffffff81111561032057600080fd5b60208301915083602082028301111561033857600080fd5b9250929050565b60008151905061034e81610681565b92915050565b60008135905061036381610698565b92915050565b60006020828403121561037b57600080fd5b60006103898482850161024c565b91505092915050565b600080600080600080606087890312156103ab57600080fd5b600087013567ffffffffffffffff8111156103c557600080fd5b6103d189828a016102ab565b9650965050602087013567ffffffffffffffff8111156103f057600080fd5b6103fc89828a016102f5565b9450945050604087013567ffffffffffffffff81111561041b57600080fd5b61042789828a01610261565b92509250509295509295509295565b60006020828403121561044857600080fd5b60006104568482850161033f565b91505092915050565b60006020828403121561047157600080fd5b600061047f84828501610354565b91505092915050565b61049181610554565b82525050565b60006104a282610538565b6104ac8185610543565b93506104bc8185602086016105ae565b6104c581610659565b840191505092915050565b6104d9816105a4565b82525050565b60006060820190506104f46000830186610488565b6105016020830185610488565b61050e60408301846104d0565b949350505050565b600060208201905081810360008301526105308184610497565b905092915050565b600081519050919050565b600082825260208201905092915050565b600061055f82610584565b9050919050565b60008115159050919050565b600061057d82610554565b9050919050565b600073ffffffffffffffffffffffffffffffffffffffff82169050919050565b6000819050919050565b60005b838110156105cc5780820151818401526020810190506105b1565b838111156105db576000848401525b50505050565b60006105ec826105a4565b91507fffffffffffffffffffffffffffffffffffffffffffffffffffffffffffffffff82141561061f5761061e61062a565b5b600182019050919050565b7f4e487b7100000000000000000000000000000000000000000000000000000000600052601160045260246000fd5b6000601f19601f8301169050919050565b61067381610554565b811461067e57600080fd5b50565b61068a81610566565b811461069557600080fd5b50565b6106a181610572565b81146106ac57600080fd5b5056fea264697066735822122048496a37da430b0f595884c848bdfad17f7c1a369d7cb804562d82338220d1f264736f6c63430008000033",
  "devdoc": {
    "kind": "dev",
    "methods": {},
    "version": 1
  },
  "userdoc": {
    "kind": "user",
    "methods": {},
    "version": 1
  },
  "storageLayout": {
    "storage": [],
    "types": null
  }
}